:040000000C947F00DD
:100004000C94AC000C94BB000C94CB000C9400003A
:100014000C9400000C9400000C9400000C9400005C
:100024000C9400000C9400000C94D4000C94000078
:100034000C9400000C9400000C9400000C9400003C
:100044000C9400000C9400000C9400000C9400002C
:10005400000000000000C842543D25332E316643A1
:100064002020483D25332E31662525004D6F746FC1
:10007400722053706565643A20256420004D6F74C6
:100084006F722073706565643A20302020200072FE
:100094006561722064697374616E743D25302E311C
:1000A40066636D00726561722064697374616E7455
:1000B4003D202D2D202020004675656C204761755C
:1000C40067653D25352E31662525000001002D4E3E
:1000D400414E00494E4600002D4E414E000080C066
:1000E4000300050054000400610258000100AF023F
:1000F400D0000200B302E2000000F894EE27ECBB4B
:10010400F1E0FBBFEBBFE5BF8DE0A2E0BB27ED93C1
:100114008A95E9F780E098E0A0E6ED930197E9F786
:10012400E4EEF0E085919591009761F0A591B59189
:1001340005901590BF01F00105900D920197E1F72C
:10014400FB01F0CFEFE5EDBFE8E0EEBFC0E6D2E0A3
:100154000C94F000EA93F894E1E05E2E909A919862
:10016400949A9598C49AC598C69AC798DC98789436
:100174000EC0EA93F894E2E05E2E9098919A9498D7
:10018400959AC498C59AC698C79ADC9A7894E991C6
:100194001895EA93EFB7F8940E9426097894EFBF74
:1001A400E9911895EA93FA93EFB7EA93F30131963C
:1001B4003F01E0E0E2BFE991EFBFF991E9911895C1
:1001C400AA93E881E062E7B98BE18A95F1F7369A60
:1001D400349BFECF349AE5B12196089510E0C3D143
:1001E400E8E7EABBE6E0EBBBE1EFE7BBE4E0E8BB52
:1001F400E0E0E4BBE5BBE3EBE1BBECE4E2BBE2E063
:10020400E3BFE0E0E2BFECBFE2BDE4E6E5BDE0E071
:10021400E4BDE3BDE1E0E9BFEBB7E06EEBBFE0E0D6
:10022400E5BFE0E4E4BFE0EEEABFE0E2E7B9E4E81A
:10023400E6B9E0E0E0BFA4E10E948A080E94470812
:100244007894EEE7F2E0FA93EA93AAE7B2E067D291
:100254005DD0E3B5F0E0DF016BD0E3B5E83C10F02E
:10026400552009F401C085D0E2E0E51509F496D0E3
:10027400E2E8F2E0FA93EA93ECE5F0E0FA93EA9329
:10028400E0917E02F0917F02609180027091810280
:100294000E94D90CE0917A02F0917B0260917C0279
:1002A40070917D020E94D90C88E00E94E6072C968A
:1002B400E0E0EA93A1E00E943A08A2E8B2E00E94DA
:1002C4006808AAE0B0E00E94660A7DD0D3D00E94FC
:1002D40031090E94F00C19F40E942609DE98C99B8A
:1002E40034D1A4EFB1E00E94660A869902C01030AE
:1002F40009F003C011E0DE9A07C0869902C01130EC
:1003040009F002C010E0DE989CCFFFCFE2E0E515D3
:1003140059F4A0E055DFAEE1EA9FF001DF01EFEF11
:10032400F0E00E94670C02C0A0E04ADFE3BD08953C
:10033400BA93AA936497E0E0EA93A0E00E943A0893
:10034400552089F0FE01FA93EA93E0E7F0E0FA938E
:10035400EA93E88DF98D0E943C0C0E943A09DE0173
:100364000E94680804C0A1E8B0E00E94770866967D
:1003740008950E9441090B30E0E01E0768F4DB9AFF
:1003840088E795E00197F1F7DB9888E795E0019716
:10039400F1F70F5F1F4FEFCFDB98E2C00E944109D6
:1003A4000B30E0E01E0768F4DB9A88E893E10197DC
:1003B400F1F7DB9888E893E10197F1F70F5F1F4F9E
:1003C400EFCFDB98CDC0C09A8BE18A95F1F7C09846
:1003D400B19BFECF66247724E0E0E2BFE2E0E3BF16
:1003E400B199FECFE0E0E3BFB62DA0E0E2B7F0E0C4
:1003F400EA0FFB1F0E943C0CE0939302F0939402DB
:1004040060939502709396020E94310C0E94DA0A5E
:10041400A1E2B3E98CE09DE30E94660BE0939702AE
:10042400F09398026093990270939A02E0E0EA9341
:10043400A2E00E943A08E2E0E515B9F4EBE9F2E043
:10044400FA93EA93E3E9F0E0FA93EA93E0919702EE
:10045400F09198026091990270919A020E943A096F
:10046400ABE9B2E00E94680804C0A8EAB0E00E94C8
:1004740077080895552029F40E9431090E944609FD
:1004840039C0552061F00E944F09E0E0F0E060E8D7
:100494007FE30E94F90B09F008F401C001C021C0F8
:1004A400E3B5F0E00E945809A7E1B7EB81ED9AE3C8
:1004B4000E94660BE0936502F09366026093670204
:1004C40070936802A0916502B09166028091670200
:1004D400909168020E9431090E940F0B0E94460904
:1004E40009C0E0E0E0936102E0936202E0936302FA
:1004F400E0936402E0E0EA93A3E00E943A08E9E6AC
:10050400F2E0FA93EA93ECEBF0E0FA93EA930E94B8
:1005140031090E943A09A9E6B2E00E9468080E94E3
:100524005D0911F008F002C0DD9A06C00E945D0961
:1005340009F008F401C0DD98CA9906C0E0E0F0E0D3
:1005440068EC72E40E94460908950E9441090B3048
:10055400E0E01E0728F40DDF21DF0F5F1F4FF7CF08
:10056400099119910895A0EDB7E00E94660AE0E0B0
:10057400E09360020895BA93AA9325970E946509AF
:10058400E0E0EC830E94F60CE09360023E2F0E2F15
:100594001E2FE030C9F4DF98D79AA2E3B0E00E949E
:1005A400660ADF9AD79810E0CF9B02C0E1E001C051
:1005B400E0E0E03049F00E946B091D3320F0E4E0F4
:1005C400E093600201C0F0CFE0916002E03011F5E9
:1005D40010E0CF9B02C0E1E001C0E0E0E03049F46C
:1005E4000E946B09153620F0E4E0E093600201C03C
:1005F400F0CF10E0CF9B02C0E1E001C0E0E0E030CA
:1006040049F00E946B09153620F0E4E0E0936002A3
:1006140001C0F0CFE0916002E03009F04DC000E08D
:10062400053008F049C037E030300CF443C010E026
:10063400CF9B02C0E1E001C0E0E0E03059F40E9449
:100644006B09173430F0E4E0E09360023FEF05E01B
:1006540001C0EECFE0916002E03051F58DE58A955E
:10066400F1F7CF9B02C0E1E001C0E0E0E03079F0B7
:10067400E02FF0E0DE011496EA0FFB1FBF011080AB
:10068400E32FA1E00E94290CE129DB01EC9310E0A7
:10069400CF9B02C0E1E001C0E0E0E03049F00E94FD
:1006A4006B09153620F0E4E0E093600201C0F0CF5E
:1006B4003150BACF0F5FB4CFE0916002E03059F50A
:1006C400AC81BB27ED81F0E0AE0FBF1FEE81F0E0FF
:1006D400AE0FBF1FEF81F0E0EA0FFB1FAE2FE885DE
:1006E400EA1721F0E3E0E093600215C000E0043073
:1006F40090F4E02FA985BA85F0E0EA0FFB1F0F0103
:10070400E02FF0E0DE011496AE0FBF1FEC91D00194
:10071400EC930F5FECCF0E94FD0C2B960895BA93D7
:10072400AA9324970E946509DE0125DFE091600207
:10073400E030E1F5EA81EA93AC813AD0AE81BF8141
:100744000E94C50CE881EA93AA8132D0AC81BD81B4
:100754000E94C50CAE81BF810E94BF0C772362F05A
:10076400DF01CB01E0E0F0E068E472E40E94F90B01
:1007740011F008F001C002C0E2E016C00E94700946
:10078400E0E0F0E060EA71E40E94F90B60F00E949E
:100794007009E0E0F0E064EB72E40E94F90B11F000
:1007A40008F001C003C0E1E0E093600228960895D8
:1007B400AA9324970E946509ED81FF27662777276E
:1007C4000E94DC0A0E94D40C0E94770926960895A0
:1007D4000E947A09E0E0EA83EFE3EB831A930A9339
:1007E400EB85FC85EF3FAFEFFA0739F40E948109EE
:1007F400A2EDB0E00E940009A9C0EF3FAFE7FA07FD
:1008040039F40E948109A3EDB0E00E9400099EC062
:10081400AC85AA2362F4E985FA856B857C850E9400
:10082400700A0E9486090E948B09EDE2EC93A88568
:10083400A73010F0E6E0E8871885E12F1150E0308A
:1008440039F00E9492090E9497090E949E09F5CFEF
:100854000E94A3090E94160B0E94860910E0E0E0A2
:10086400F0E060E87FE30E949E090E94A3090E94D1
:10087400F90B88F00E9492090E94AC090E949E091B
:100884001F5F173238F00E948109A7EDB0E00E9483
:1008940000095CC0EACF103029F40E948B09E0E320
:1008A400EC9329C0E12F1150E03029F10E94920904
:1008B4000E9497090E94B309DF01CB010E94E90855
:1008C4000E949E090E94A3090E94B40B0E94A30ADD
:1008D4000E2F0E948B09E02FE05DEC93E02FF0E0F7
:1008E4000E9492090E9458090E94660B0E94BA094C
:1008F4000E94BF09D7CFE885E03021F10E948B091F
:10090400EEE2EC93E885E150E887EF5FD9F00E94CE
:10091400BA090E94AC090E948609E985FA856B85AB
:100924007C850E94A30A0E2F0E948B09E02FE05DB4
:10093400EC93E02FF0E00E94BA090E9458090E944B
:10094400BF09E0CFAE81BF81E0E0EC93198108815B
:100954002D960895BA93AA931A930A93AA81BB81F8
:1009640012960E94BB0C309729F1AA81BB81149680
:100974000E94BB0C8F01309761F00230E0E01E074B
:1009840080F0F80131978F01AA81BB811496ED9311
:10099400FC93AA81BB8112960E94C4093197AC8151
:1009A400A083AA81BB810E94BB0CFF2312F00E948A
:1009B400C40906C0AA81BB81EFEFFFEFED93FC935E
:1009C40019810881259608950E947A09E0E8EA834E
:1009D400EFE3EB830E94F60CEE85FF85EF3FAFEF6C
:1009E400FA0749F4E885F985FA93EA93ACEDB0E0A7
:1009F4000E940009CBC0EF3FAFE7FA0749F4E8854E
:100A0400F985FA93EA93ADEDB0E00E940009BEC007
:100A1400AB85A73010F0E6E0EB871B85E12F115082
:100A2400E03029F00E94CA090E94CF09F7CFEC8573
:100A3400FD856E857F850E94F00C31F430E00E94C4
:100A4400CA090E94CF0937C03B850E94D40909F026
:100A540008F410C00E94CA090E94CF090E94D40958
:100A640040F00E94DF090E9497090E94E4093F5F59
:100A7400F5CF0FC00E94D40940F40E94DF090E9400
:100A8400AC090E94E4093150F5CF0E94CA090E94C2
:100A9400CF09EC85FD856E857F850E94B3090E9490
:100AA400E4090E94D40938F00E94DF090E949709E2
:100AB4000E94E4093F5F10E0EB85E117D8F1AC81B7
:100AC400BD818E819F810E9497090E94B309DF0135
:100AD400CB010E94E9080E94CF09EC81FD816E815F
:100AE4007F810E94DF090E94B40B0E94A30A0E2F8B
:100AF4000E94E909E02FE05DEC93E02FFF276627D1
:100B040077270E94DC0AAC81BD818E819F810E947F
:100B1400660B0E94DF090E94E30C0E940F0B0E94E7
:100B2400E409E12F1F5FE03039F60E94E909EEE2A3
:100B3400EC93C2CF0E94F0093197AA85A08330308C
:100B44002CF43195A885B985EDE203C0A885B98553
:100B5400EBE2EC930E94F0090E94F0093197BF0187
:100B6400A32FEAE00E944F0CE05DDB01EC930E94AE
:100B7400F0093197BF01A32FEAE00E94910CE05DD8
:100B8400DB01EC93A885B985E0E0EC930E94FD0CB1
:100B940060960895BA93AA93EF9761970E94F40C14
:100BA40010E0FE01E85AFF4F0190F081E02DE88744
:100BB400F987FE01EA5AFF4F0190F081E02DEE83A0
:100BC400FF83AE81BF81E0E0F0E0ED93FC93DE01B2
:100BD400A45ABF4F0E94C4093197E4912E2FE030EC
:100BE40009F4E9C1E12FE03039F4253211F411E0C0
:100BF40002C00E94F609DEC1E130C1F4253219F4C5
:100C04000E94F609D6C112E0E0E0ED8B00E02D323F
:100C140011F401E0CFC12B3219F4EBE2ED8BCAC120
:100C2400203219F4E0E2ED8BC5C102C0E23039F4A0
:100C340050E013E0203311F40068BCC102C0E3307B
:100C440091F4203310F02A3308F007C0AAE05A9F29
:100C5400502DE22FE0535E0FADC140E02E3211F46F
:100C640014E0A8C10FC0E43099F4203310F02A3303
:100C740008F008C00062AAE04A9F402DE22FE0532A
:100C84004E0F98C12C3619F4026015E093C103C0CD
:100C9400E53009F08FC1E22FE33659F40E94FD09D3
:100CA4000E94040A0E94FD09A481AA930E940B0ACF
:100CB40080C1E53411F0E53609F403C0E63609F0E5
:100CC40048C0FE017696EE87FF870E94110A0E94B3
:100CD400BF0C0E94180A0E941D0AAD85AA2332F097
:100CE400AD89AB3259F0A03281F017C00E941F0ABF
:100CF4000E94700A0E94180AEDE2ED8B07FF05C0FE
:100D0400ED89EA930E940B0A08C0EE85FF853196AF
:100D1400EE87FF873197AD89A08305FF46E026362D
:100D240051F40E941F0A0E94D90C4A93AB89BC89D2
:100D34000E94EA0309C00E941F0A0E94D90C4A9328
:100D44002A93AC89BD8940DEFE0176960E94240A6E
:100D54001EC0E33739F40E941D0A0E942C0A0E9427
:100D6400240A0EC0E037C1F40E941D0A0E942C0A16
:100D7400EE87FF87AE85BF850E9419091E2F086084
:100D84000F77403011F0411708F001C0142F40E0F4
:100D9400E0E0EC8B30E06DC0E43611F0E93611F49C
:100DA400046002C0E537A1F4EAE0EC8B01FF08C05F
:100DB400E0E0FAEC6AE97BE30E94310A1AE022C01F
:100DC400E0E1F7E260E070E00E94310A15E01AC049
:100DD400E83511F4086003C0E83709F0EAC0E0E13F
:100DE400EC8B01FF08C0E0E0F0E060E070E10E94FD
:100DF400310A18E007C0E0E0F0E160E070E00E9432
:100E0400310A14E0403011F00F7701C041E001FFD6
:100E140008C00E941D0A0E94110A14960E94BF0C69
:100E24000FC002FF07C00E941D0A0E942C0A0E94E4
:100E34003C0C06C00E941D0A0E942C0A66277727D4
:100E4400EA87FB876C877D8702FF12C0AD85AA23E2
:100E540042F40E941F0A0E94210C0E94180AEDE22B
:100E6400ED8BED89E03019F01F5F4F5F01C00B7F00
:100E7400342F00FD14C0151710F4351708F00FC0F7
:100E840007FF08C002FF04C00B7F2D89115001C069
:100E940020E301C020E20E94F6095150ECCF141760
:100EA40090F4006102FF06C00E94360A09F0515016
:100EB40011504150E0E3EA930E940B0A503009F0CC
:100EC40051504150ECCF312FEC89E030B9F430303F
:100ED400A1F003FF06C0EE85FF852591EE87FF870D
:100EE40005C0AE85BF852D91AE87BF870E94F609E8
:100EF400503009F051503150EACF51C00E94480A95
:100F04000E946C0C2E2F2A3030F003FF02C0295CA3
:100F140001C0295A01C0205D04FD21C0213360F4C1
:100F2400A889B9898A899B89A130E0E0BE07E0E0FD
:100F34008E07E0E09E0709F40BC0431740F45317F3
:100F440010F000FF01C010C020E207FF08C020E33A
:100F5400006102FF04C00E94360A09F051500E9449
:100F6400F609503009F0515031500E94480A0E944D
:100F74009D0C0E94180AEC89A889B9898A899B89E1
:100F8400FF27662777270E946C0C0E94310AE889A4
:100F9400F9896A897B890E94F00C09F0AFCF00FFC0
:100FA40008C0503031F05150E0E2EA930E940B0A3D
:100FB400F8CF10E00CCEAE81BF810E94BB0C0E9422
:100FC400FB0CEF966F960895FF92F82E26970E94D9
:100FD400F60C0E94510A309719F4EFEFFFEF23C08B
:100FE400DE0116960E94190C8D010E94510AEE83AF
:100FF400FF83E0E0E887E987DE011A960E94190C76
:101004000E94BB0CFA93EA931A930A93ECEAF4E075
:10101400FA93EA93DE011A96BDDD9F01AE81BF818A
:10102400E0E0EC93F9010E94FD0C2A96FF900895EC
:10103400AA93E5B3EF70AE2FE881E07FEA2BE5BB1E
:101044008DE08A95F1F7AA9A8DE08A95F1F7AA982E
:101054008DE08A95F1F788C0AA93A881E9DFE88139
:10106400E295E883A881E4DF85E88A95F1F77CC0FE
:10107400AA93E881F0E0ED54FD4FE081A981AE0F21
:10108400EBDF4980988022960895A2E00E94580AD6
:10109400ACE0E2DFA1E00E94580AE0E09E2E4E2E72
:1010A4000895AA93A881AA3011F0481448F0E0E00A
:1010B400EA939394A92DDCDFA881AA3009F454C0E3
:1010C4004394A89AA881C8DFA8984EC0BA93AA935B
:1010D4001A93A981BA81ED91A983BA831E2FE030B6
:1010E40019F0A12FDEDFF5CF10C0BA93AA931A939B
:1010F400E981FA813196E983FA833197E4911E2FCD
:10110400E03019F0A12FCDDFF3CF18812396089595
:10111400AA93E4B3E06FE4BBA29AA09AA19AAA9816
:10112400A898A9988880E881E058E093B502E881FE
:10113400E054E093B602A4E1B0E00E94660A0E9483
:101144005E0A0E945E0A0E945E0AA0E271DF88ECD9
:1011540090E00197F1F7A8E27FDFA4E07DDFA5E846
:101164007BDFA6E079DF91DF219608950E94DE0CF3
:101174007B816A81F981E88177FB770F67FD716074
:10118400972F9E5781F078F0983190F4AA27BB27C7
:10119400882708948795B795A7959A95D1F7EA2358
:1011A400FB23682305C0E8947727EE27FF276627EB
:1011B4006F77769508F4606877F9A991B991899168
:1011C4009991EA17FB076807790797FB08950E942E
:1011D400DE0C0E94CF0C0E94B8080E94D40C19F4B3
:1011E4000E94770909C0E6F70E947709A0E0B0E001
:1011F40080E89FE30E940F0B24960895BA93AA9364
:10120400E991F991A991B991CD0105900D92002030
:10121400E1F7FC010895BA93AA93A991B991EE2735
:10122400FF276D91662311F03196FBCF0895BA9391
:10123400AA93AA27BB27E991F9910590002011F000
:101244001196FBCFFD010895552490989198949898
:101254009598C498C598C698C798DC980895E09165
:101264006102F091620260916302709164020895D8
:101274000E94D90C84E00E94E607289608951A93E8
:101284000A9301E010E00895E0936102F093620292
:1012940060936302709364020895A0916102B09117
:1012A4006202809163029091640208950E943C0C52
:1012B4000E94DC0A0895F1DFE0E0F0E060E771E409
:1012C4000E94F90B0895E0E0E883E983EA83EB8365
:1012D400089585E08A95F1F71E5F0895AC81BD817C
:1012E4000E94BF0CDF01CB0108950E94CA0C08952F
:1012F400BA93AA932497E0E0E883E9830895EE8102
:10130400FF81FA93EA930895E987FA876B877C87CC
:101314000895AE81BF811196AE83BF83119708955E
:10132400AA81BB818C819D810895EDECFCEC6CEC71
:101334007DE30E94660B0895EA83FB836C837D83BF
:101344000895EA81FB816C817D81A985BA858B85AD
:101354009C850895E0E0F0E060E271E40E94660B91
:101364000895A0E0B0E080E09FE30E94160B08958A
:10137400A985BA858B859C8508950E94E30C0E94FB
:101384000F0BC2CFED91FD913196FE93EE9308952C
:10139400AC81BD818E819F81DDCFEC83FD836E8323
:1013A4007F830895EC81FD816E817F81AC85BD854D
:1013B4008E859F850E94F90B0895AC85BD858E8529
:1013C4009F850895EC87FD876E877F870895A8859C
:1013D400B9851196A887B98711970895E885F98585
:1013E4003196E887F98708952A93AF81B885E9850E
:1013F400FA8509950895FE01E65AFF4F0190F081A0
:10140400E02D08953497DE01A65ABF4FED93FC9367
:101414000895AF81B885E985FA8509950895DE01B7
:10142400A65ABF4F0D90BC91A02D0895EA87FB8763
:101434006C877D870895DFDFE5CFEA85FB856C85C2
:101444007D850895EE87FF87AE85BF850E940D09CF
:101454001E2F0895E4DF14960E94BB0C0895E88BB8
:10146400F98B6A8B7B8B08950B7FED89EA93DE0100
:10147400A95ABF4F0D90BC91A02DFE01E75AFF4F12
:101484000190F081E02D099550300895E889F9899B
:101494006A897B89AA85BB858C859D850895DE0133
:1014A4001C960E94190C0E94BB0C08950E942E08E1
:1014B400A3E0B0E00C94660AA0E30E941A0888EC4A
:1014C40090E00197F1F70895109639F080ED97E0D8
:1014D4000197F1F7A8951197C9F7089530976040DF
:1014E400704009F070580895552342F4503811F4AF
:1014F400E0FF04C03196691F791F6BF050E857274D
:1015040011F45F93CFC05F3F31F0660F000C579525
:101514006795752F08955F9300200AF0CFC0C8C067
:1015240050E8192E1522880F991F9527550F879576
:1015340050E8072E0522660F771F7527550F67950C
:101544000895689401C0E8945F93F2DF703818F04E
:101554007F3F08F4A7C056E1571BAAF451955830B1
:101564000EF4593030F0EFEFFFEF6FEF7FE777F9CC
:101574001AC077275523B9F0EE0FFF1F661F771F98
:101584005A95D1F710C07727583028F0EF2FF62F4F
:10159400672F5850F9CF552331F076956795F79515
:1015A400E7955A95D1F700200AF449D15F9108953F
:1015B400689401C0E894309760407040B1F0002412
:1015C40026F0772312F400943AD1172E7EE11120ED
:1015D40032F07A95EE0FFF1F661F111CF9CFEF2F23
:1015E400F62F612D5F938ADF5F9108954F93AF01CA
:1015F400FD01DA01AB01BC01CA01402D012C142EFE
:101604004F910895EA0FFB1F681F0895E095F09528
:101614006095EF5FFF4F6F4F08955F9381DF9038C0
:1016240071F150E8152604C05F937ADF903839F1E0
:10163400703821F1572F591B2BF112F4D7DFFACF51
:10164400583118F0AA27BB278827583028F0AB2F29
:10165400B82F88275850F9CF552329F08695B79588
:10166400A7955A95D9F7502D512572F0CBDF38F450
:101674006795F795E795739513F420C0B7DF3EDFC0
:101684005F910895D8F7FBCFEA1BFB0B680B51F071
:1016940010F40094BBDF662392F3EE0FFF1F661F66
:1016A4007A95CBF7EE27FF27662777275F91089572
:1016B400EFEFFFEF6FE77FEF5F910895EFEFFFEF3D
:1016C4006FE77FE75F9108955F932ADF703851F3E6
:1016D400903841F301240894791F23F41CF300206B
:1016E4003AF3ECCF0F921F932F933F934F9311270D
:1016F40022279927689FA0018F9F302D410D591FE4
:101704006B9F300D411D591F8E9F27D0BF9F25D041
:101714006A9F23D0BE9F1DD0AF9F1BD0AE9F110DDB
:10172400291F391F491F591FE32FF42F652F522FEB
:101734004F913F912F911F910F9066232AF0550FDF
:10174400EE1FFF1F661F02C073954BF2CDDE5F9143
:101754000895100D211D391F02C0200D311D491F90
:10176400591F08955F93DCDE703821F411200AF4C8
:101774009FCFA4CF903809F495CF01240894970BF8
:101784001BF4D4F30020F3CF792F1F932F933F93AF
:101794004F9311241127222733274427552790E2FA
:1017A400AE17BF078607410730F0AE1BBF0B860B91
:1017B400410B089401C08894551F221F331F111C2C
:1017C400AA1FBB1F881F441F9A9551F7F901612D69
:1017D4004F913F912F911F91662332F0550FEE1FC9
:1017E400FF1F661F7A9543F27FDE5F910895992368
:1017F4009AF0772342F0971748F029F4AE17BF0701
:10180400860720F031F09894889408959894089469
:1018140008951894889408957723C2F7971798F336
:10182400A9F7EA17FB07680788F399F3ECCF0024BC
:10183400AF0DB01D0895F195E195F0400895F09530
:1018440060957095E195FF4F6F4F7F4F0895EE239C
:101854000E2EEA2F19F0EE0F0A94E9F70895769503
:101864006795F795E7950895FE2FFF0FFF0B6F2FF0
:101874007F2F08956F2F660F660B762F089500242F
:1018840098E0AA0F001C0E1A10F40E0E01C0A160FD
:101894009A95B9F7EA2FA02D089551D0F0DF0EF4F0
:1018A400E19508950024112490E1AA0FBB1F001CA8
:1018B400111C0E1A1F0A18F40E0E1F1E01C0A1607F
:1018C4009A9599F7FD01D001089545D0EBDF0EF408
:1018D400B2DF08953F934F935F930024112444276C
:1018E400552730E2AA0FBB1F881F991F001C111C2B
:1018F400441F551F0E1A1F0A460B570B28F40E0ED1
:101904001F1E461F571F01C0A1603A9559F7FD01DC
:10191400BC01D001CA015F914F913F910895E894B1
:10192400A7FF02C0A1956894E7FDE195A8DFEA2F1F
:101934000EF4E1950895CEDFFD01BC010895E8940D
:10194400E7FF02C0E1956894A7FF04C0A19500F8E1
:10195400039400FA0895E894F7FF02C06CDF6894DA
:10196400B7FF06C0A095B095119600F8039400FA4D
:101974000895ED91FC9111970895ED91FD916D916C
:101984007C9113970895ED93FD936D937C93089543
:10199400E881F9816A817B810895A881B9818A816E
:1019A4009B810895E883F9836A837B8308957A93FE
:1019B4006A93FA93EA9308959A938A93BA93AA93AB
:1019C4000895182E862F612D192E972F712D1B2EF9
:1019D400BF2FF12D1A2EAE2FE12D089530976040C0
:1019E400704008955A934A933A932A931A930A9308
:1019F40008955D814C813B812A8119810881089574
:00000001FF
